:0200000460009A
:10000000464346420004015600000000010303007D
:1000100000000000000000000000000000000000E0
:1000200000000000000000000000000000000000D0
:1000300000000000000000000000000000000000C0
:1000400000000000000406000000000000000000A6
:100050000000800000000000000000000000000020
:100060000000000000000000000000000000000090
:100070000000000000000000000000000000000080
:10008000EB04180A063204260000000000000000FD
:100090000000000000000000000000000000000060
:1000A0000000000000000000000000000000000050
:1000B0000000000000000000000000000000000040
:1000C0000000000000000000000000000000000030
:1000D0000000000000000000000000000000000020
:1000E0000000000000000000000000000000000010
:1000F0000000000000000000000000000000000000
:1001000000000000000000000000000000000000EF
:1001100000000000000000000000000000000000DF
:1001200000000000000000000000000000000000CF
:1001300000000000000000000000000000000000BF
:1001400000000000000000000000000000000000AF
:10015000000000000000000000000000000000009F
:10016000000000000000000000000000000000008F
:10017000000000000000000000000000000000007F
:10018000000000000000000000000000000000006F
:10019000000000000000000000000000000000005F
:1001A000000000000000000000000000000000004F
:1001B000000000000000000000000000000000003F
:1001C000000100000010000000000000000000001E
:1001D000000004000000000000000000000000001B
:1001E000000000000000000000000000000000000F
:1001F00000000000000000000000000000000000FF
:1002000000000000000000000000000000000000EE
:1002100000000000000000000000000000000000DE
:10100000D10020410020006000000000000000002E
:1010100020100060001000600000000000000000D0
:10102000000000600000800000000000FFFFFFFFE4
:1010300000000000000000000000000000000000B0
:1010400000000000000000000000000000000000A0
:101050000000000000000000000000000000000090
:101060000000000000000000000000000000000080
:1020000080842020E9B1006041840160BDB100609E
:10201000BDB10060BDB10060BDB100600000000056
:1020200000000000000000000000000031AA006075
:10203000BDB1006000000000DDA900600DD40060AB
:10204000D5AA0060D5AA0060D5AA0060D5AA006014
:10205000D5AA0060D5AA0060D5AA0060D5AA006004
:10206000D5AA0060D5AA0060D5AA0060D5AA0060F4
:10207000D5AA0060D5AA0060D5AA0060D5AA0060E4
:1022C00090F800F06DE9024520F007016FF0000C76
:1022D00010F0070491F820F040F049804FF000041E
:1022E0006FF00700D1E9002391F840F000F10800F9
:1022F00082FA4CF2A4FA8CF283FA4CF3A2FA8CF331
:102300004BBBD1E9022382FA4CF200F10800A4FA97
:102310008CF283FA4CF3A2FA8CF3E3B9D1E90423EB
:1023200082FA4CF200F10800A4FA8CF283FA4CF322
:10233000A2FA8CF37BB9D1E9062301F1200182FADC
:102340004CF200F10800A4FA8CF283FA4CF3A2FAE2
:102350008CF3002BC6D0002A04BF04301A4612BAF0
:10236000B2FA82F2FDE8024500EBD2007047D1E9F3
:10237000002304F00305C4F100004FEAC50514F082
:10238000040F91F840F00CFA05F562EA05021CBF53
:1023900063EA050362464FF00004A9E7000000006D
:1023A000A2EB0300704700BF02780B78012A28BF18
:1023B0009A42F5D16DE9044540EA0104CDE902678E
:1023C0006FF0000C4FEA447212B380EA010414F07B
:1023D000070F6AD100F0070420F0070004F003059E
:1023E00021F007014FEAC505F0E8042314F0040FBB
:1023F000F1E804670CFA05F462EA040266EA0406EE
:102400000AD063EA0403624667EA0407664603E00B
:10241000F0E80423F1E8046782FA4CF582EA060446
:10242000A4FA8CF46CBB83FA4CF583EA0705A5FA91
:102430008CF595B950E9022351E9026782FA4CF50F
:1024400082EA0604A4FA8CF483FA4CF583EA0705C1
:10245000A5FA8CF52543DBD09CB92DBAB5FA85F4E5
:1024600024F0070427FA04F1DDE9026723FA04F3F4
:1024700003F0FF0001F0FF01FDE80445A0EB0100BF
:10248000704724BAB4FA84F424F0070426FA04F15D
:10249000DDE9026722FA04F202F0FF0001F0FF0119
:1024A000FDE80445A0EB0100704714F0030F3CD198
:1024B00010F0030428D150F8082B51F8083B82FA99
:1024C0004CF582EA0305A5FA8CF55DB950F8042CA9
:1024D00051F8043C82FA4CF582EA0305A5FA8CF522
:1024E000002DE8D02DBAB5FA85F424F0070423FABC
:1024F00004F122FA04F202F0FF0001F0FF01FDE80E
:102500000445A0EB010070474FEAC40420F003002B
:1025100050F8082B21F0030151F8083B0CFA04F4A1
:1025200062EA040263EA0403C9E710F003041AD064
:10253000A1EB040120F00300E40750F8042B06D0BF
:102540000FD28B785FFAA2F4E41A06D12BB1CB78C4
:102550005FFAB2F4E41A00D11BB920465DF8104BC3
:10256000704701F1040150F8042BCC0721F003015E
:1025700051F8043B48D824D222F07F4482FA4CF52B
:1025800094EA1325A5FA8CF50AD165B951F8043BF4
:1025900084EA0204B4EB036F0ED150F8042BEBE78E
:1025A0004FEA132355E035F07F454DD10878FDE81B
:1025B0000445C0F1000070474FEA126203F0FF03C8
:1025C00047E002EA1C4482FA4CF594EA1345A5FA66
:1025D0008CF50AD165B951F8043B84EA0204B4EBE6
:1025E000034F0CD150F8042BEBE74FEA134330E0D4
:1025F00015EA1C4528D10B884FEA124229E04FEA20
:10260000124203EA1C4324E002F0FF0482FA4CF574
:1026100094EA1365A5FA8CF50AD165B951F8043B23
:1026200084EA0204B4EB032F09D150F8042BEBE742
:102630004FEA13630DE015F0FF0F05D10B684FEA69
:10264000122223F07F4304E04FF00000FDE8044530
:10265000704712BA1BBA82FA4CF482EA0304A4FA55
:102660008CF5B5FA85F402FA04F203FA04F34FEAA2
:102670001260FDE80445A0EB136070470000000005
:1026800001F0FF01102A2BDB10F0070F08D010F823
:10269000013B013A8B422DD010F0070F42B3F6D127
:1026A000F0B441EA012141EA014122F007047FF040
:1026B00000070023F0E80256083C85EA010586EA97
:1026C000010685FA47F5A3FA87F586FA47F6A5FAD3
:1026D00087F68EB9EED1F0BC01F0FF0102F00702DF
:1026E00032B110F8013B013A83EA010313B1F8D18A
:1026F0000020704701387047002D06BF354603386B
:10270000073815F0010F07D1013015F4807F02BFA3
:10271000013015F4C03F0130F0BC0138704700BFF4
:1027200081F0004102E000BF83F0004330B54FEA82
:1027300041044FEA430594EA050F08BF90EA020FEF
:102740001FBF54EA000C55EA020C7FEA645C7FEA82
:10275000655C00F0E2804FEA5454D4EB5555B8BFA5
:102760006D420CDD2C4480EA020281EA030382EA16
:10277000000083EA010180EA020281EA0303362DA8
:1027800088BF30BD11F0004F4FEA01314FF4801C7B
:102790004CEA113102D0404261EB410113F0004F8D
:1027A0004FEA03334CEA133302D0524263EB430344
:1027B00094EA050F00F0A780A4F10104D5F1200EE2
:1027C0000DDB02FA0EFC22FA05F2801841F100013D
:1027D00003FA0EF2801843FA05F359410EE0A5F111
:1027E00020050EF1200E012A03FA0EFC28BF4CF042
:1027F000020C43FA05F3C01851EBE37101F00045F8
:1028000007D54FF0000EDCF1000C7EEB00006EEB04
:102810000101B1F5801F1BD3B1F5001F0CD349088E
:102820005FEA30004FEA3C0C04F101044FEA4452E5
:1028300012F5800F80F09A80BCF1004F08BF5FEA6C
:10284000500C50F1000041EB045141EA050130BD4C
:102850005FEA4C0C404141EB0101013C28BFB1F55E
:10286000801FE9D291F0000F04BF01460020B1FAA9
:1028700081F308BF2033A3F10B03B3F120020CDA7C
:102880000C3208DD02F1140CC2F10C0201FA0CF05A
:1028900021FA02F10CE002F11402D8BFC2F1200CBF
:1028A00001FA02F120FA0CFCDCBF41EA0C01904075
:1028B000E41AA2BF01EB0451294330BD6FEA0404BE
:1028C0001F3C1CDA0C340EDC04F11404C4F12002A9
:1028D00020FA04F001FA02F340EA030021FA04F3BB
:1028E00045EA030130BDC4F10C04C4F1200220FA12
:1028F00002F001FA04F340EA0300294630BD21FA50
:1029000004F0294630BD94F0000F83F4801306BF15
:1029100081F480110134013D4EE77FEA645C18BF09
:102920007FEA655C29D094EA050F08BF90EA020FA0
:1029300005D054EA000C04BF1946104630BD91EA98
:10294000030F1EBF0021002030BD5FEA545C05D19B
:102950004000494128BF41F0004130BD14F58004DA
:102960003CBF01F5801130BD01F0004545F0FE414E
:1029700041F470014FF0000030BD7FEA645C1ABF83
:10298000194610467FEA655C1CBF0B46024650EABA
:10299000013406BF52EA033591EA030F41F40021E6
:1029A00030BD00BF90F0000F04BF0021704730B56C
:1029B0004FF4806404F132044FF000054FF0000141
:1029C00050E700BF90F0000F04BF0021704730B502
:1029D0004FF4806404F1320410F0004548BF4042D7
:1029E0004FF000013EE700BF42004FEAE2014FEA2C
:1029F00031014FEA02701FBF12F07F4393F07F4F07
:102A000081F06051704732F07F4208BF704793F009
:102A10007F4F04BF41F40021704730B54FF460741C
:102A200001F0004521F000411CE700BF50EA01021F
:102A300008BF704730B54FF000050AE050EA0102C8
:102A400008BF704730B511F0004502D5404261EB38
:102A500041014FF4806404F132045FEA915C3FF479
:102A6000D8AE4FF003025FEADC0C18BF03325FEA16
:102A7000DC0C18BF033202EBDC02C2F1200300FAC7
:102A800003FC20FA02F001FA03FE40EA0E0021FAEC
:102A900002F11444BDE600BF70B54FF0FF0C4CF4DA
:102AA000E06C1CEA11541DBF1CEA135594EA0C0F8C
:102AB00095EA0C0F00F0DEF82C4481EA030621EAC7
:102AC0004C5123EA4C5350EA013518BF52EA033502
:102AD00041F4801143F4801338D0A0FB02CE4FF0B4
:102AE0000005E1FB02E506F00042E0FB03E54FF0E4
:102AF0000006E1FB03569CF0000F18BF4EF0010EDC
:102B0000A4F1FF04B6F5007F64F5407404D25FEAD7
:102B10004E0E6D4146EB060642EAC62141EA55518A
:102B20004FEAC52040EA5E504FEACE2EB4F1FD0CCC
:102B300088BFBCF5E06F1ED8BEF1004F08BF5FEA4A
:102B4000500E50F1000041EB045170BD06F00046FC
:102B500046EA010140EA020081EA0301B4EB5C04A9
:102B6000C2BFD4EB0C0541EA045170BD41F48011A1
:102B70004FF0000E013C00F3AB8014F1360FDEBFC6
:102B8000002001F0004170BDC4F10004203C35DAA2
:102B90000C341BDC04F11404C4F1200500FA05F325
:102BA00020FA04F001FA05F240EA020001F00042C6
:102BB00021F0004110EBD37021FA04F642EB06013C
:102BC0005EEA430E08BF20EAD37070BDC4F10C0466
:102BD000C4F1200500FA04F320FA05F001FA04F22A
:102BE00040EA020001F0004110EBD37041F1000116
:102BF0005EEA430E08BF20EAD37070BDC4F1200521
:102C000000FA05F24EEA020E20FA04F301FA05F288
:102C100043EA020321FA04F001F0004121FA04F230
:102C200020EA020000EBD3705EEA430E08BF20EA00
:102C3000D37070BD94F0000F0FD101F0004640003A
:102C400041EB010111F4801F08BF013CF7D041EABC
:102C5000060195F0000F18BF704703F000465200C0
:102C600043EB030313F4801F08BF013DF7D043EA91
:102C70000603704794EA0C0F0CEA135518BF95EA47
:102C80000C0F0CD050EA410618BF52EA4306D1D1CE
:102C900081EA030101F000414FF0000070BD50EAED
:102CA000410606BF1046194652EA430619D094EA77
:102CB0000C0F02D150EA013613D195EA0C0F05D161
:102CC00052EA03361CBF104619460AD181EA0301B5
:102CD00001F0004141F0FE4141F470014FF000006D
:102CE00070BD41F0FE4141F4780170BD70B54FF008
:102CF000FF0C4CF4E06C1CEA11541DBF1CEA135588
:102D000094EA0C0F95EA0C0F00F0A7F8A4EB050469
:102D100081EA030E52EA03354FEA013100F0888060
:102D20004FEA03334FF0805545EA131343EA126329
:102D30004FEA022245EA111545EA10654FEA0026DE
:102D40000EF000419D4208BF964244F1FD0404F597
:102D5000407402D25B084FEA3202B61A65EB0305F3
:102D60005B084FEA32024FF480104FF4002CB6EBB0
:102D7000020E75EB030E22BFB61A754640EA0C0030
:102D80005B084FEA3202B6EB020E75EB030E22BF70
:102D9000B61A754640EA5C005B084FEA3202B6EBB1
:102DA000020E75EB030E22BFB61A754640EA9C0070
:102DB0005B084FEA3202B6EB020E75EB030E22BF40
:102DC000B61A754640EADC0055EA060E18D04FEAFE
:102DD000051545EA16754FEA06164FEAC30343EA9E
:102DE00052734FEAC2025FEA1C1CC0D111F4801F6B
:102DF0000BD141EA00014FF000004FF0004CB6E764
:102E000011F4801F04BF01430020B4F1FD0C88BF02
:102E1000BCF5E06F3FF6AFAEB5EB030C04BFB6EB0D
:102E2000020C5FEA500C50F1000041EB045170BD00
:102E30000EF0004E4EEA113114EB5C04C2BFD4EB2D
:102E40000C0541EA045170BD41F480114FF0000EB1
:102E5000013C90E645EA060E8DE60CEA135594EA2D
:102E60000C0F08BF95EA0C0F3FF43BAF94EA0C0F30
:102E70000AD150EA01347FF434AF95EA0C0F7FF4A5
:102E800025AF104619462CE795EA0C0F06D152EAF9
:102E900003353FF4FDAE1046194622E750EA4106DD
:102EA00018BF52EA43067FF4C5AE50EA41047FF4EE
:102EB0000DAF52EA43057FF4EBAE12E74FF0FF3C53
:102EC00006E000BF4FF0010C02E000BF4FF0010C24
:102ED0004DF804CD4FEA410C7FEA6C5C4FEA430C9D
:102EE00018BF7FEA6C5C1BD001B050EA410C0CBFEC
:102EF00052EA430C91EA030F02BF90EA020F00204E
:102F0000704710F1000F91EA030F58BF994208BFB4
:102F100090422CBFD8176FEAE37040F00100704771
:102F20004FEA410C7FEA6C5C02D150EA013C07D1C8
:102F30004FEA430C7FEA6C5CD6D152EA033CD3D013
:102F40005DF8040B704700BF8446104662468C460D
:102F50001946634600E000BF01B5FFF7B7FF002840
:102F600048BF10F1000F01BD4DF808EDFFF7F4FF69
:102F70000CBF012000205DF808FB00BF4DF808EDF4
:102F8000FFF7EAFF34BF012000205DF808FB00BF17
:102F90004DF808EDFFF7E0FF94BF012000205DF839
:102FA00008FB00BF4DF808EDFFF7CEFF94BF0120EE
:102FB00000205DF808FB00BF4DF808EDFFF7C4FFE7
:102FC00034BF012000205DF808FB00BF4FEA41023A
:102FD00012F5001215D211D56FF47873B3EB62526B
:102FE00012D94FEAC12343F0004343EA505311F092
:102FF000004F23FA02F018BF404270474FF0000024
:10300000704750EA013005D111F0004008BF6FF061
:10301000004070474FF00000704700BF4FEA410288
:10302000B2F1E04324BFB3F5001CDCF1FE5C0DD926
:1030300001F0004C4FEAC0024CEA5070B2F1004F70
:1030400040EB830008BF20F00100704711F0804F73
:1030500021D113F13872BCBF01F00040704741F438
:1030600080114FEA5252C2F11802C2F1200C10FA3C
:103070000CF320FA02F018BF40F001004FEAC12320
:103080004FEAD32303FA0CFC40EA0C0023FA02F3C4
:103090004FEA4303CCE77FEA625307D150EA01339A
:1030A0001EBF4FF0FE4040F44000704701F000406A
:1030B00040F0FE4040F40000704700BF80F0004048
:1030C00002E000BF81F0004142001FBF5FEA410300
:1030D00092EA030F7FEA226C7FEA236C6AD04FEA00
:1030E0001262D2EB1363C1BFD21841404840414045
:1030F000B8BF5B42192B88BF704710F0004F40F4F7
:10310000000020F07F4018BF404211F0004F41F412
:10311000000121F07F4118BF494292EA030F3FD0DE
:10312000A2F1010241FA03FC10EB0C00C3F12003F1
:1031300001FA03F100F0004302D5494260EB400080
:10314000B0F5000F13D3B0F1807F06D340084FEAEB
:10315000310102F10102FE2A51D2B1F1004F40EBE0
:10316000C25008BF20F0010040EA03007047490048
:1031700040EB0000013A28BFB0F5000FEDD2B0FAE5
:1031800080FCACF1080CB2EB0C0200FA0CF0AABF08
:1031900000EBC25052421843BCBFD04018437047A6
:1031A00092F0000F81F4000106BF80F400000132AC
:1031B000013BB5E74FEA41037FEA226C18BF7FEA83
:1031C000236C21D092EA030F04D092F0000F08BFC5
:1031D0000846704790EA010F1CBF0020704712F0AC
:1031E0007F4F04D1400028BF40F00040704712F1EB
:1031F00000723CBF00F50000704700F0004343F050
:10320000FE4040F4000070477FEA226216BF084685
:103210007FEA23630146420206BF5FEA412390EA48
:10322000010F40F4800070474FF0000304E000BF3E
:1032300010F0004348BF40425FEA000C08BF7047EF
:1032400043F0964301464FF000001CE050EA0102B3
:1032500008BF70474FF000030AE000BF50EA0102C8
:1032600008BF704711F0004302D5404261EB4101B5
:103270005FEA010C02BF84460146002043F0B643DA
:1032800008BFA3F18053A3F50003BCFA8CF2083AFF
:10329000A3EBC25310DB01FA02FC634400FA02FC08
:1032A000C2F12002BCF1004F20FA02F243EB02000F
:1032B00008BF20F00100704702F1200201FA02FC71
:1032C000C2F1200250EA4C0021FA02F243EB020064
:1032D00008BF20EADC7070474FF0FF0C1CEAD052A8
:1032E0001EBF1CEAD15392EA0C0F93EA0C0F6FD069
:1032F0001A4480EA010C400218BF5FEA41211ED047
:103300004FF0006343EA501043EA5111A0FB013132
:103310000CF00040B1F5000F3EBF490041EAD37107
:103320005B0040EA010062F17F02FD2A1DD8B3F183
:10333000004F40EBC25008BF20F00100704790F0F2
:10334000000F0CF0004C08BF49024CEA502040EA44
:1033500051207F3AC2BFD2F1FF0340EAC25070470A
:1033600040F400004FF00003013A5DDC12F1190F48
:10337000DCBF00F000407047C2F10002410021FABA
:1033800002F1C2F1200200FA02FC5FEA310040F1D2
:10339000000053EA4C0308BF20EADC70704792F04B
:1033A000000F00F0004C02BF400010F4000F013A83
:1033B000F9D040EA0C0093F0000F01F0004C02BF7E
:1033C000490011F4000F013BF9D041EA0C018FE7ED
:1033D0000CEAD15392EA0C0F18BF93EA0C0F0AD0F3
:1033E00030F0004C18BF31F0004CD8D180EA010019
:1033F00000F00040704790F0000F17BF90F0004FB2
:10340000084691F0000F91F0004F14D092EA0C0F93
:1034100001D142020FD193EA0C0F03D14B0218BF26
:10342000084608D180EA010000F0004040F0FE406C
:1034300040F40000704740F0FE4040F44000704708
:103440004FF0FF0C1CEAD0521EBF1CEAD15392EA87
:103450000C0F93EA0C0F69D0A2EB030280EA010C77
:1034600049024FEA402037D04FF0805343EA111110
:1034700043EA10130CF000408B4238BF5B0042F16E
:103480007D024FF4000C8B4224BF5B1A40EA0C0013
:10349000B3EB510F24BFA3EB510340EA5C00B3EB45
:1034A000910F24BFA3EB910340EA9C00B3EBD10F33
:1034B00024BFA3EBD10340EADC001B0118BF5FEA85
:1034C0001C1CE0D1FD2A3FF650AF8B4240EBC250AE
:1034D00008BF20F0010070470CF0004C4CEA50206F
:1034E0007F32C2BFD2F1FF0340EAC250704740F4BE
:1034F00000004FF00003013A37E792F0000F00F0B0
:10350000004C02BF400010F4000F013AF9D040EA2D
:103510000C0093F0000F01F0004C02BF490011F4C1
:10352000000F013BF9D041EA0C0195E70CEAD153B9
:1035300092EA0C0F08D142027FF47DAF93EA0C0FA0
:103540007FF470AF084676E793EA0C0F04D14B0284
:103550003FF44CAF08466EE730F0004C18BF31F036
:10356000004CCAD130F000427FF45CAF31F0004330
:103570007FF43CAF5FE700BF4FF0FF3C06E000BFC9
:103580004FF0010C02E000BF4FF0010C4DF804CDEC
:103590004FEA40024FEA41037FEA226C18BF7FEAFC
:1035A000236C11D001B052EA530C18BF90EA010FFE
:1035B00058BFB2EB030088BFC81738BF6FEAE1708D
:1035C00018BF40F0010070477FEA226C02D15FEA29
:1035D000402C05D17FEA236CE4D15FEA412CE1D095
:1035E0005DF8040B704700BF844608466146FFE75C
:1035F0000FB5FFF7C9FF002848BF10F1000F0FBD3E
:103600004DF808EDFFF7F4FF0CBF012000205DF836
:1036100008FB00BF4DF808EDFFF7EAFF34BF0120BB
:1036200000205DF808FB00BF4DF808EDFFF7E0FF54
:1036300094BF012000205DF808FB00BF4DF808EDA5
:10364000FFF7D2FF94BF012000205DF808FB00BF08
:103650004DF808EDFFF7C8FF34BF012000205DF8EA
:1036600008FB00BF7BB972B90029BEBF00204FF034
:10367000004106E008BF00281CBF6FF000414FF07A
:10368000FF3000F057B8ADF1080C6DE904CE002909
:1036900009DB002B1ADB00F0FFF8DDF804E0DDE9C0
:1036A000022304B07047404261EB4101002B1BDB59
:1036B00000F0F2F8DDF804E0DDE9022304B0404256
:1036C00061EB4101524263EB43037047524263EBAB
:1036D000430300F0E1F8DDF804E0DDE9022304B083
:1036E000404261EB41017047524263EB430300F0FB
:1036F000D3F8DDF804E0DDE9022304B0524263EBC5
:103700004303704753B94AB9002908BF00281CBFBA
:103710004FF0FF314FF0FF3000F00CB8ADF1080C66
:103720006DE904CE00F0B8F8DDF804E0DDE902232D
:1037300004B07047704700BF844641EA000313F0AD
:1037400003036DD1403A41D351F8043B40F8043BA8
:1037500051F8043B40F8043B51F8043B40F8043B6B
:1037600051F8043B40F8043B51F8043B40F8043B5B
:1037700051F8043B40F8043B51F8043B40F8043B4B
:1037800051F8043B40F8043B51F8043B40F8043B3B
:1037900051F8043B40F8043B51F8043B40F8043B2B
:1037A00051F8043B40F8043B51F8043B40F8043B1B
:1037B00051F8043B40F8043B51F8043B40F8043B0B
:1037C00051F8043B40F8043B403ABDD2303211D3AB
:1037D00051F8043B40F8043B51F8043B40F8043BEB
:1037E00051F8043B40F8043B51F8043B40F8043BDB
:1037F000103AEDD20C3205D351F8043B40F8043BAB
:10380000043AF9D2043208D0D2071CBF11F8013BA8
:1038100000F8013B01D30B8803806046704700BF6E
:10382000082A13D38B078DD010F003038AD0C3F17D
:103830000403D21ADB071CBF11F8013B00F8013B5F
:1038400080D331F8023B20F8023B7BE7043AD9D31E
:10385000013A11F8013B00F8013BF9D20B780370F3
:103860004B7843708B788370604670474FEA410C09
:103870007FEA6C5C02D150EA013C0AD14FEA430C6A
:103880007FEA6C5C02D152EA033C02D14FF00000A7
:1038900070474FF0010070472DE9F04786468C468F
:1038A0000846089E154674461946002B40F0C28013
:1038B0008542B2FA82F245D94AB1C2F1200300FA38
:1038C00002FC2EFA03F3954043EA0C0C94404FEAB5
:1038D000154EA8B2BCFBFEF8230C0EFB18CC08FB5F
:1038E00000F943EA0C43994528D9EB1808F1FF3752
:1038F00004D2994502D9A8F102072B44A3EB09038E
:10390000A4B2B3FBFEFC0EFB1C330CFB00F044EA3C
:103910000344A04214D92C190CF1FF3304D2A04265
:1039200002D9ACF102032C44241A43EA07401EB129
:10393000D440002334607360BDE8F0874746DDE77C
:103940006346F1E792BB431B01214FEA154EAFB22C
:10395000B3FBFEFC200C0EFB1C330CFB07F840EA0B
:103960000343984562D9EB180CF1FF3004D2984517
:1039700002D9ACF102002B44A3EB0803A4B2B3FBC1
:10398000FEFC0EFB1C330CFB07F744EA0344A74282
:103990004ED92C190CF1FF3304D2A74202D9ACF155
:1039A00002032C44E41B43EA0040C0E7C2F12003B9
:1039B00020FA03F1954090402EFA03F303434FEAB7
:1039C000154EAFB2B1FBFEFC0EFB1C10190C0CFB2C
:1039D00007F841EA0041884504FA02F422D969183F
:1039E0000CF1FF3004D2884502D9ACF10200294421
:1039F000A1EB08019BB2B1FBFEFC0EFB1C110CFB02
:103A000007F743EA01439F420ED9EB180CF1FF314F
:103A100004D29F4202D9ACF102012B44DB1B41EAE4
:103A2000004192E76046E3E76146F7E76046A3E7B7
:103A30006346B7E7834206D916B9002108467BE7FB
:103A4000C6E900E0F9E7B3FA83F78FB9834201D3FF
:103A5000724508D8BEEB020460EB030301209C46CC
:103A60001EB9002168E73846FAE7C6E9004CF8E7D6
:103A7000C7F1200CBB4022FA0CF41C432EFA0CF1C7
:103A800020FA0CF3B84001434FEA14490EFA07F547
:103A9000B3FBF9F81FFA84FE09FB18300B0C08FB86
:103AA0000EFA43EA00439A4502FA07F240D9E318B6
:103AB00008F1FF3004D29A4502D9A8F1020023444C
:103AC000A3EB0A0389B2B3FBF9F809FB183308FB2F
:103AD0000EFE41EA03418E452CD9611808F1FF33EF
:103AE00004D28E4502D9A8F10203214443EA0040E2
:103AF000A0FB0298A1EB0E014145CE46434602D3FE
:103B000006D14D4504D2B9EB020E68EB040301382F
:103B1000002EA6D0B5EB0E0261EB030101FA0CFCFE
:103B200022FA07F34CEA0303F940C6E9003198E7AB
:103B30004046C5E74346D9E72DE9F04F89B00D4629
:103B40008768D0E90063039383890593B36806AA65
:103B5000039930465B689847002831DB4FF0FF3A05
:103B6000DFF87C90DDE9064BA7FB042307FB0B384D
:103B700004920498414618A3D3E90023FFF7C2FD3D
:103B8000049B07469A4579EB08031CD3A5FB044325
:103B900005FB0B35204610A3D3E900232946FFF788
:103BA000B1FDA245034679EB05050CD38742B26807
:103BB0000CD3059930460091039914683A46A04702
:103BC00009B0BDE8F08F6FF08500F9E76FF01500E0
:103BD000F6E700BFAFF3008000CA9A3B0000000088
:103BE000FFC99A3B000000002DE9F04F00258BB083
:103BF00001274FF0FF344FF0000AB14E4CF2503025
:103C0000002113F01CFE089707950695039504956F
:103C100000220023AB48CDE90023642200230EF0EC
:103C20004BFD4FF0FF324FF0FF33A74813F001FE7A
:103C3000A64BA548D3F800B013F0FDFD4FF0FF32BE
:103C40004FF0FF33A24813F0F4FDA24B1868FEF7C3
:103C5000CBFE91A3D3E90023FEF71EFF90A3D3E987
:103C60000023FEF761FDFFF7D9F9FEF7BDFE8EA335
:103C7000D3E90023FEF710FF0022974BFFF736F839
:103C8000FFF7CCF9954B964918601868FFF724FBAD
:103C9000FEF7AAFE894680462846FEF7A5FE84A3C5
:103CA000D3E90023FEF7F8FE02460B46404649469C
:103CB000DFF83092FEF73AFDFFF7B0F90546844889
:103CC00013F0B9FD00215846FFF79AFC002840F098
:103CD0005E8101230AF1010A89F80030089B5345EF
:103CE00000F0D880BAF1000F02D0002F00F0408120
:103CF0000024DFF8F4812046FFF79AFA7849FFF7AD
:103D0000EBFA014607467948FFF7DCF909900520F0
:103D100013F097FD09995846FFF77CFC002800F046
:103D20000B8139464046FFF7CDF901465846FFF76B
:103D300085FC002800F00081C4F103046C4B53F8AB
:103D4000243008936B4B53F824206B4B1A606B4B59
:103D500053F824206A4B1A606A4B53F824206A4BAC
:103D60001A606A4B53F82420694B1A60694B53F868
:103D70002420694B1A604FF0FF324FF0FF33674841
:103D800013F057FD0AF18043654A013B634852F83E
:103D9000242052F82330634A3360136013F04BFD44
:103DA00030682946FFF78EF9534B074618683946A5
:103DB000FFF792FA5C4980463846FFF78DFA0146D4
:103DC0000398FFF781F94FF07C510390FFF740FC17
:103DD000002840F0D1804FF03F410398FFF71AFCD4
:103DE000002840F0CD80464B03991868FFF774FA1D
:103DF000454B049981463846D3F800B0FFF762F985
:103E00004949FFF71DFBFEF7EFFD2BA3D3E9002384
:103E1000FEF742FECDE9040144490698FFF75CFA3B
:103E2000FEF7E2FD02460B46DDE90401FEF77EFCEB
:103E3000FFF7F4F85946FFF74FFA079906903068F4
:103E4000FFF7E8FB002800F09E803068324B00F15D
:103E500000401968FFF740FA3368834649464046F8
:103E60000793FFF731F90699FFF72EF95946FFF747
:103E70002BF94FF0FF3280464FF0FF332C4813F000
:103E8000D8FC2C4B2A48C3F8008013F0D4FC0497CC
:103E900000275AE082462BE71CB8811BB881AB3F54
:103EA0000000000000F06040182D4454FB21094040
:103EB000000000606666E63F000000809999C93FF7
:103EC000CC302020C8332020CC342020E8462020CD
:103ED000E0342020D0462020008066408C472020FF
:103EE0009A99993E2D4E2020CDCC2C400000404088
:103EF00050A50160B43020201C472020A430202091
:103F0000184720209430202014472020843020207F
:103F100010472020FC4620200C47202090342020F1
:103F20006C302020904720200AD7233CCDCC4C3F3A
:103F3000A4342020944720200134042C7FF4DBAEED
:103F400000274FF0FF3489F800703068FEF74CFD11
:103F5000804689462846FEF747FD42464B46CDE956
:103F600000010D4813F021FD0C4813F066FC4FE6EC
:103F7000631C7FF400AFE3E74FF07C53039332E719
:103F80004FF03F43FAE7064B3068196862E70023B9
:103F900089F80030D9E700BF78C10160C83320201C
:103FA00010472020000000002DE9F04F0024ADF55F
:103FB0001F7D4FF41672002108A8DFF81CA2DFF85D
:103FC0001C82A1460FF0BCF94CF25030002113F0D6
:103FD00036FC002200235046DFF804B2CDE900236E
:103FE0000A2200230EF068FB4FF0FF324FF0FF3340
:103FF0007C4813F01EFC7C4B7C491868FFF76CF979
:104000000546784813F017FC4FF0FF324FF0FF33AE
:10401000774813F00EFCDBF81400FEF7D3FC6AA31C
:10402000D3E90023FEF762FE06460F46DBF81000D8
:10403000FEF7C8FC02460B4630463946FEF776FBD3
:104040006C4B0022FEF728FDFEF7E8FF06466848A5
:1040500013F0F1FB3246642108A813F00EFC8346EE
:104060002846FEF7C1FC06460F465846FEF7BCFC44
:1040700032463B46CDE900015F4813F096FC5946B5
:104080002846DFF878B1FFF71DF85D4B0646186843
:104090003146FFF721F9DBF80070414605903046C4
:1040A000FFF71AF93946574FFFF70EF8CBF8000023
:1040B0003946DBF80000FFF7CBFA10B1CBF80070FF
:1040C00007E0514FDBF800003946FFF7A3FA00285C
:1040D000F4D14E4B30464E4F1B680293DBF8003054
:1040E00039680393FEF7EEFF4146FFF7A9F9494B04
:1040F0004FF07C5118602046D3F800B0464B1B6847
:104100000493FFF7E9F8FEF76FFCCDE90601584686
:10411000FEF76AFC0022414BFEF7BEFC02460B464E
:10412000DDE90601FEF702FBFEF778FF0499FFF7D1
:10413000D3F83B4B01463E60044605981E68FEF7E7
:10414000C3FF074603990298FFF7C6F801463846B1
:10415000FEF7BAFF074629463046FFF7BDF8314E55
:1041600001463846FEF7B0FF494605463768FFF777
:104170006FFA2D4BF0B101221A6031682846FEF724
:10418000A3FF49460546FFF759FAD0B12846FEF786
:104190002BFC0022254BFEF7A9FD0DA3D3E900233C
:1041A000FEF77AFCFEF712FF214B1860504613F021
:1041B00044FB0EE74FF0FF3207F100471A6037600B
:1041C000DBE705F10040E2E70000000080842E41BB
:1041D00000000000006AE840203320206F12833A7C
:1041E000A0472020A43420209447202000007A44B7
:1041F000B834202000408F4085C10160B0462020A7
:10420000C830202000002041000020C12447202089
:10421000AC462020A8462020204720200000E03F78
:10422000C4302020F046202080302020000059405B
:10423000F8462020000000002DE9F347DFF830A108
:1042400000254C48002402F057F8CAF800004A48FC
:104250000CF096FB07234FF400724849464800953E
:104260000CF0A8FB464947480CF00AFB44F62060D6
:10427000002113F0E4FA00220023DFF80C81434808
:10428000CDE900230A2200230EF016FA4146DAF89F
:10429000000002F075F800285DD14FF0FF324FF0BA
:1042A000FF333B4813F0C5FAD8F80C00FEF78AFB41
:1042B0002BA3D3E90023FEF719FD06460F46D8F8D5
:1042C0000800FEF77FFB02460B4630463946FEF7F4
:1042D0002DFAFEF7A3FE06462D4813F0ACFA304641
:1042E000FEF782FB00224FF080430EF0D3FA0EF06F
:1042F0008FFB804689462046FEF776FB06460F4632
:1043000040464946FEF78AFE01462046FEF7DAFEA1
:10431000FEF76AFB14A3D3E90023FEF7BDFB0246B8
:104320000B4630463946FEF7FFF9FEF777FE154992
:104330000446086110484D6115F0FFFA204601352A
:10434000FEF752FB02460B46124813F02EFB0F48B5
:1043500013F073FA8FE702B0BDE8F087AFF3008087
:104360000000000080842E41666666666666E63F51
:104370009C472020EEC20160003F202000682020E2
:1043800031600060B8462020B847202058332020F4
:10439000CC34202040C301601F292DE9F843164684
:1043A0004468036952D0202945D01E295AD1588823
:1043B000FEF708FB2EA3D3E90023FEF76DFB0022D6
:1043C000334B04460D46FEF7D9FD00284DD120465B
:1043D000294629A3D3E90023FEF7EEFD002844D1A6
:1043E00029462046FEF7F2FD0746FEF7EBFA0246A5
:1043F0000B4620462946FEF797F921A3D3E900236F
:10440000FEF74AFB0022224B80468946FEF7B6FDA6
:1044100058BB4046494618A3D3E90023FEF7CCFD1C
:10442000044610BB404649463760FEF7CFFD70603A
:104430002046BDE8F8839B881420228953435843C3
:10444000FEF7C0FA10A3D3E90023B6E7DA88D10B50
:1044500017BF52420122DA804FF0FF32DB882089F9
:104460005343ECE76FF08500E3E76FF02100E0E7EE
:10447000FCA9F1D24D62703F0000C0FFFFFFDF4199
:104480000000000080842E41F168E388B5F8E43E26
:104490000000E0C1000000002DE9F04F23F00047CC
:1044A0001D469A4657EA020393B000F036838946C8
:1044B0008046D54829F00046864214461146CB4630
:1044C0004346324600F2238300F02C83874200F2F9
:1044D0001E8300F0CE83BBF1000FC0F27983002968
:1044E00000F038830021009140464946049302922F
:1044F0000EF07EFB049B029A002B00F08D834FEAA6
:10450000DB73013B0A93C14B9F4200F2E783BE4B32
:104510000BEA0303002B40F098840022BC4BFEF70B
:10452000BBFA6FF034060A461315A3F2FF339F1946
:10453000B84B0B97C2F3130242F07F569A4246F4EF
:10454000401607DDB44B9A4240F3EC8401370B97D9
:10455000A6F5801600220023CDE90823CDE910231B
:10456000AE4B0022CDE906230027DDE906233146C4
:104570008246FEF7D9F8B346DDE906238046894630
:1045800050463146CDE90CABFEF7D0F802460B465B
:104590000020A249FEF7AAFB0A460146CDE90E1209
:1045A0001346494602464046FEF776FA0A468346D7
:1045B0009446CDE902BC4FF0000CCDF808C076104F
:1045C000DDE902AB46F00056014606F50023CDE9D1
:1045D00004120020D91906460F4602460B465046E3
:1045E0005946FEF759FA02460B4640464946FEF741
:1045F0009BF8DDE906238046894630463946FEF7BA
:1046000093F802460B46DDE90C01FEF78DF85246A1
:104610005B46FEF741FA02460B4640464946FEF726
:1046200083F8DDE90E23FEF737FADDE90467CDE90B
:10463000060132463B4630463946FEF72DFA60A366
:10464000D3E9002306460F46FEF726FA5EA3D3E918
:104650000023FEF76BF832463B46FEF71DFA5CA3DB
:10466000D3E90023FEF762F832463B46FEF714FA20
:1046700059A3D3E90023FEF759F832463B46FEF72B
:104680000BFA57A3D3E90023FEF750F832463B4616
:10469000FEF702FA54A3D3E90023FEF747F83246A7
:1046A000804689463B4630463946FEF7F5F90246D4
:1046B0000B4640464946FEF7EFF9524606460F467E
:1046C0005B46DDE90401FEF731F8DDE90623FEF77C
:1046D000E3F932463B46FEF729F8524680468946C2
:1046E0005B4650465946FEF7D7F902460B46CDE9E0
:1046F0000C234B4B0022FEF719F842464B46FEF7BF
:1047000015F800260F4632463B4650465946FEF7FE
:10471000C3F9434B82468B46002230463946FEF7AA
:1047200003F8DDE90C23FDF7FFFF02460B46404688
:104730004946FDF7F9FFDDE90423FEF7ADF93246FE
:10474000804689463B46DDE90601FEF7A5F90246AB
:104750000B4640464946FDF7E9FF8046894602463A
:104760000B4650465946FDF7E1FF002620A3D3E94A
:10477000002330460F46FEF78FF952465B468246CD
:104780008B4630463946FDF7CFFF02460B46404682
:104790004946FDF7C9FF18A3D3E90023FEF77CF9CA
:1047A00017A3D3E900238046894630463946FEF7F1
:1047B00073F902460B464046494633E0AFF30080AA
:1047C000EF4E454A287ECA3F65DBC9934A86CD3FF6
:1047D00001411DA96074D13F4D268F515555D53FDC
:1047E000FFAB6FDBB66DDB3F033333333333E33F74
:1047F000000000E009C7EE3FFD033ADC09C7EE3FC9
:10480000F5015B14E02F3EBE0000F07F0000E041A8
:10481000000040438E98030079B60B000000F03F83
:1048200000000840FDF782FFDDE91023FDF77EFF61
:1048300080460B988946FEF7C5F8424606460F4665
:104840004B4650465946CDE904ABFDF76FFFDDE915
:104850000823FDF76BFF32463B46FDF767FF00205C
:1048600032463B4682468B46FDF75EFFDDE9082374
:10487000FDF75AFFDDE90423FDF756FF02460B461C
:1048800040464946FDF750FFCDE90201009B0A9AD8
:10489000013B134314BFC84BC84B0022CDE904238E
:1048A0000023CDE900450093DDE90089204642461A
:1048B0004B462946FDF738FF5B465246FEF7ECF8BB
:1048C000224606460F462B46DDE90201FEF7E4F8D4
:1048D00002460B4630463946FDF728FF424604465D
:1048E0000D464B4659465046FEF7D6F80B46024653
:1048F00006460F4620462946FDF718FFB04B994261
:10490000A046A94604460D468B4640F30C8201F1B1
:104910003F4303F5E003034340F0A28294A3D3E9AD
:10492000002340464946FDF701FF3246CDE900012C
:104930003B4620462946FDF7F7FE02460B46DDE9D9
:104940000001FEF739FB002840F08A824FF4007125
:104950005944C1F30A539B48A3F2FF33C1F3130236
:10496000184142F48012C3F1140342FA03FABBF176
:10497000000F00EA01034FF0000230463946B8BF8D
:10498000CAF1000AFDF7D0FE02460B4606460F4666
:1049900040464946FDF7CAFE4FEA0A5B0D46002431
:1049A00075A3D3E9002320462946FEF775F8324661
:1049B000CDE900013B4620462946FDF7B5FE0246FB
:1049C0000B4640464946FDF7AFFE6DA3D3E90023F1
:1049D000FEF762F86CA3D3E9002306460F46204693
:1049E0002946FEF759F802460B4630463946FDF790
:1049F0009DFEDDE9008906460F4602460B4640460D
:104A00004946FDF793FE42464B4604460D46FDF7E8
:104A10008BFE02460B4630463946FDF785FE2246A0
:104A2000804689462B4620462946FEF735F858A38E
:104A3000D3E9002306460F46FEF72EF856A3D3E926
:104A40000023FDF771FE32463B46FEF725F854A3DE
:104A5000D3E90023FDF76AFE32463B46FEF71CF819
:104A600051A3D3E90023FDF75FFE32463B46FEF734
:104A700013F84FA3D3E90023FDF758FE32463B4617
:104A8000FEF70AF802460B4620462946FDF74CFE83
:104A900006460F4602460B4620462946FDF7FCFF18
:104AA0000022CDE900014FF0804330463946FDF742
:104AB0003BFE02460B46DDE90001FEF717F94246D0
:104AC00006460F464B4620462946FDF7E5FF42467F
:104AD0004B46FDF72BFE02460B4630463946FDF7A6
:104AE00023FE22462B46FDF71FFE02460B46002002
:104AF0003149FDF719FE0C465C44B4F5801FC0F245
:104B000023822146DDE90423FDF7C6FF07E006F115
:104B1000404606F580161E4307D12749002013B0F2
:104B2000BDE8F08F0BB9B74205D9274813B0BDE8EF
:104B3000F04F0EF067B87FF4CEAC002CF5D1234BCC
:104B40009E4240F28581BAF1000FC0F2DB80204620
:104B50002946E4E71848874240F0D780BAF1000FB1
:104B6000C0F2CE8140464946D9E700BFAFF300808E
:104B7000FE822B654715973C00000000432EE63F60
:104B8000EF39FAFE422EE63F396CA80C615C20BE7C
:104B9000D0A4BE726937663EF16BD2C541BDBB3E43
:104BA0002CDE25AF6A56113F93BDBE166CC1663F21
:104BB0003E5555555555C53F0000F03F0000F0BF2C
:104BC000FFFF8F400000F0FF00BE0160FFFFEF3FDE
:104BD000BF48874270D8BF4887420DD93815A0F228
:104BE000FF30142840F34981C0F1340021FA00FC61
:104BF0000CFA00F088422AD0002940F0B780BAF1C0
:104C0000804F2FD0009140464946049302920DF008
:104C1000EFFF049B029A2BB9AF4B2BF0404C9C4505
:104C200032D08EB3DDF800C04FEADB73013B0A934C
:104C30005CEA03037FF467AC42464B4610461946D4
:104C4000FDF772FD02460B46FEF750F867E70CF0E1
:104C5000010CCCF10200009000297FF445ACBAF1C0
:104C6000804FD0D142464B4640464946FDF714FF9F
:104C700055E7002C7FF44BAF06F1404202F580125D
:104C80001A433FF44AAF5AE7BAF1000F05DA024679
:104C90000B4600209049FEF729F8BBF1000FBFF644
:104CA0003EAF009B06F1404606F580161E4340F0DD
:104CB000318102460B46C1E7002900F04981404698
:104CC0004946029300920DF093FF029B009A002B3D
:104CD00000F01D810223009300230A937F4B9F4223
:104CE0007C4B4FD99E420AD9BAF1000F0ADD6CA362
:104CF000D3E9002310461946FDF7CEFE0FE7BAF1BF
:104D0000000FF4DB0020002109E7BAF1804FA9D0A1
:104D1000734882457FF476AF4046494613B0BDE8FC
:104D2000F04F0DF0A3BEDFF8BCC121F00043634596
:104D300040F2DE806C4B0B4403430AD132463B46C3
:104D4000FDF7F2FC42464B46FEF72CF900283FF4F3
:104D5000FDAD55A3D3E90023DDE90401FDF79CFE79
:104D600051A3D3E90023FDF797FED8E64046494614
:104D7000009302920DF03CFF009B002B7FF45CAF90
:104D8000029A49E79E42BAD3534B9E42ACD8524B4B
:104D90000022FDF7C9FC46A3D3E9002306460F46CF
:104DA000FDF77AFE44A3D3E90023804689463046C6
:104DB0003946FDF771FE4D4B82468B460022304648
:104DC0003946FDF769FE02460B463DA1D1E90001D7
:104DD000FDF7AAFC32463B46FDF75EFE02460B4657
:104DE00000203F49FDF7A0FC3246CDE902013B46D9
:104DF00030463946FDF750FE02460B46DDE902011A
:104E0000FDF74AFE30A3D3E90023FDF745FE024635
:104E10000B4650465946FDF787FC02460B460646B0
:104E20000F4640464946FDF781FC002042464B466E
:104E300082468B46FDF778FC02460B4630463946E3
:104E4000FDF772FCCDE9020120E50026FFF76CBBFF
:104E5000BAF1000FBFF656AF204605F100415EE6FD
:104E60000FA3D3E90023DDE90401FDF715FE0CA330
:104E7000D3E90023FDF710FE51E600297FF476AF59
:104E8000C0F1140047FA00FC0CFA00F0B84266D0FA
:104E9000114887423FF462AEB1E600BFAFF3008035
:104EA0009C7500883CE4377E59F3F8C21F6EA5015B
:104EB000000000604715F73F44DF5DF80BAE543E3D
:104EC000555555555555D53FFE822B654715F73F2E
:104ED000FFFF3F43FFFFEF3F0000F03F0000F043C4
:104EE0000000E03FFFCB904000346F3F0000D03F18
:104EF000294A934241D8DDE90023934692464EE584
:104F000042464B4625490020FDF7F0FE07E6022306
:104F1000009381E6009B012B7FF401AE01F1004379
:104F20001946FCE518A3D3E90023CDE9082318A30B
:104F3000D3E90023CDE91023194B0022CDE9062344
:104F40004FF48027FFF711BB524600F02DF8D9E54A
:104F5000BAF1804F3FF486AE0221009153E60F492B
:104F60008F423FF4FBADBAF1804F3FF47BAE0CF0C3
:104F7000010CCCF10201009145E61B15A3F2FE33B2
:104F80004FF480111941E3E40000004003B8E23F10
:104F900006D0CF43EBFD4C3E0000E03F0000F03F69
:104FA0000000F83F00000000F8B5C1F30A560446BF
:104FB0000D4617460B463EBB21F00043034322D06B
:104FC0002B4B0022FDF768FD2A4B9F4204460D46FD
:104FD00037DBC1F30A560B46363EBA1940F2FE7172
:104FE0008A4219DC002A32DC12F1350F20DB23F073
:104FF000FF43363223F4E00343EA025120461E4BBE
:105000000022FDF749FDF8BD40F2FF729642E4D15F
:105010000246FDF78BFBF8BD11A3D3E90023ED0F8A
:105020001C4665F3DF7421461448FDF735FDF8BDD5
:1050300005F0004343F0D27141F4B731104841F01C
:105040001F0109A3D3E90023FDF726FDF8BD23F0D6
:10505000FF4323F4E003204643EA0251F8BD00BFBA
:105060009C7500883CE4377E59F3F8C21F6EA50199
:1050700000005043B03CFFFF0000903C9C7500884E
:1050800059F3F8C2000000002DE9F04F016C9FB009
:1050900016461F46CDE904672B9D039049B1426C2B
:1050A0004A600123934004468B6011F0C5FC002345
:1050B0002364B7F10009B4BF012300232B60764BB2
:1050C000BCBF29F00049CDF8149033EA090300F081
:1050D000AA80DDE904340022184621460023CDE9E8
:1050E0000801FDF741FF804668B12A9A0123136049
:1050F0002C9B13B12C9A694B1360694B0A930A9845
:105100001FB0BDE8F08F1CAB01931DAB009303985B
:10511000DDE9082311F0C4FF5FEA1955824640F02B
:105120009880DDE91C85454405F23243202B40F38D
:105130008383C3F1400309FA03F905F2124326FA07
:1051400003F349EA0300FDF72DFC0123013DA1F122
:10515000F8711193534B0022FDF7E6FA48A3D3E907
:105160000023FDF799FC48A3D3E90023FDF7DEFAFD
:10517000064628460F46FDF725FC45A3D3E9002344
:10518000FDF78AFC02460B4630463946FDF7CEFA5B
:1051900006460F46FDF71AFF0022834600233046DD
:1051A0003946FDF7EBFE002840F01A83A8EB05080E
:1051B000BBF1160F08F1FF3400F28B813A4D05EB7D
:1051C000CB05D5E90023DDE90801FDF7D7FE00286E
:1051D00070D00023002C0BF1FF3B1093C0F27E81B6
:1051E00000230B93BBF1000F6ADA0B9BA3EB0B03BD
:1051F0000B93CBF10003CDE90EB3289B092B4FF0A5
:10520000000B65D8052B40F31C83043B2893002535
:10521000289B023B032B00F22386DFE813F0600497
:105220005D04540438042A9AC9F3130942F20F7337
:1052300059EA060913601CD12C9B002B00F02B8629
:105240001A4B0A9308332C9A0A9813601FB0BDE8D2
:10525000F08FDDE90812C2F31303084643F07F51D3
:10526000CDF84480A5F2FF35DDF8708041F440119F
:1052700070E72C9B002B40F0E7830D4B0A933EE731
:1052800061436F63A787D23FB3C8608B288AC63F4C
:10529000FB799F501344D33F0000F07F99BF01601A
:1052A00098BF01600000F83F88A40160BCBF0160A6
:1052B000C8BF0160B8F1000F40F3608410900B90FC
:1052C00000230F93289BCDF838B0092B5C4499D963
:1052D0000023CDE9283301254FF0FF330C950693C9
:1052E000039B00215964069B1893039811F07EFBE1
:1052F0000A90002800F0BD85039B0A9A1A64069B59
:105300000E2B00F21581002D00F012810E9A002A5A
:1053100040F33B84B24D02F00F0305EBC303D3E926
:10532000008913461511DA0540F1FA83AD4BDDE92A
:105330000801D3E90823FDF7D9FCCDE9120105F0F6
:105340000F0503277DB1A74EEB0708D54046494618
:10535000D6E90023FDF7A0FB0137804689466D1092
:1053600006F10806F0D142464B46DDE91201FDF791
:10537000BDFC80468946109B43B19B4B00224046B2
:105380004946FDF7FBFD002840F0F1843846FDF763
:1053900019FB42464B46FDF77FFB944B0022FDF77D
:1053A000C5F9069B0646A1F15077002B00F0A980B5
:1053B0000E9B1993069B12930A9B894D49464046C2
:1053C000CDE914675E1CFDF701FE129905EBC103E0
:1053D00053E902120746CDE91612FDF7F3FA024629
:1053E0000B4640464946FDF79FF989460C993037F0
:1053F000DDE916238046FFB2002900F053847C4982
:105400000020FDF773FCDDE91423FDF78DF90A9DFB
:1054100002460B46CDE914232F7042464B46FDF75A
:10542000CBFD002840F09784CDE91AB4CDF858A000
:10543000129DDDE914AB00272AE00137AF4280F26C
:10544000DE846C4B504659460022FDF725FB694B24
:10545000002282468B4640464946FDF71DFB8946A1
:105460008046FDF7B3FD0446FDF7ACFA02460B4655
:1054700040464946FDF758F9303406F8014B52468C
:105480005B4680468946FDF779FD002840F0B484EC
:1054900042464B4654490020FDF746F952465B46CA
:1054A000FDF76CFD0028C8D0199BDDF858A00A9ABA
:1054B000374603F1010802E0974200F07C843E4643
:1054C00017F8013D392BF7D00133DBB23B7045466D
:1054D00075E10123002C1093BFF682AEC8F10103E1
:1054E0000B9300247EE63846FDF76CFA42464B46A5
:1054F000FDF7D2FA3D4B0022FDF718F90646A1F15F
:1055000050773D4B404649460022FDF70DF93246A3
:105510003B4680468946FDF74FFD002840F05A84FF
:1055200040464946324607F10043FDF727FD28BBB8
:105530001D9B002BC0F292800E9A0E2A00F38E80E3
:10554000274D0E9B05EBC305D5E90034CDE90434A6
:10555000299B002B19DA069B002B16DC0ED1264B5B
:105560000022DDE90401FDF797FA02460B46DDE96A
:105570000801FDF70DFD002800F02C844FF0000914
:105580000A9E4F46299BDD4325E2DDE90445DDE91E
:10559000088922462B4640464946FDF7A7FBFDF702
:1055A00015FD0646FDF70EFA22462B46FDF774FA66
:1055B0000A9F0B46024649464046FDF7B5F806F1FC
:1055C000300307F8013B069B012B00F012830125F5
:1055D000CDF818A09946DDE904ABA8462CE000BF41
:1055E00088A4016060A401600000F03F00001C403E
:1055F0000000E03F000024400000144052465B469B
:1056000020462946FDF772FBFDF7E0FC0646FDF754
:10561000D9F952465B46FDF73FFA08F101080B46FF
:10562000024629462046FDF77FF806F13003C845BB
:1056300007F8013B00F0DB82B94B0022FDF72CFAA2
:105640000022002304460D46FDF78EFC0028D5D02D
:105650000E9DDDF818A001353E46B0E00C9A002AF8
:1056600040F0D28000230F9D0B9E0C931F4656B135
:10567000002C08DDA6420B9A3346A8BF2346D21A57
:105680000B92F61AE41A0F9B53B10C9B13B1002D29
:1056900040F0E88251460F9A039811F05DFB824674
:1056A0000398012111F074FA8146BBF1000F40F01C
:1056B000B681289B012B40F3CC810120204410F0BF
:1056C0001F0000F09A80C0F12003042B40F3DA8120
:1056D0000B9BC0F11C0003440B93064404440B9B3A
:1056E000002B05DD514603981A4611F08FFB8246C8
:1056F000002C05DD49460398224611F087FB8146C0
:10570000109B002B40F07081069B002B40F34881DA
:105710000C9B002B40F0A4800E9D0135DDF8288005
:10572000069CDDF80CB0012607E0514600230A2252
:10573000584611F08BF9013682464946504610F022
:10574000ABFBA64200F1300308F8013BEDDB069A03
:10575000002AC8BF16460A9AD8BF012602EB060BDC
:105760000024514601220398049311F04FFB49464F
:10577000824611F0C3FB002840F3E3810A9A02E05D
:105780005A4500F0E9815E460BF1FF3B16F8013CFB
:10579000392BF5D001338BF80030DDF80C80494609
:1057A000404611F049F957B12CB1BC4203D0214613
:1057B000404611F041F90398394611F03DF903983C
:1057C000514611F039F9002333702A9B1D602C9B40
:1057D000002B3FF494AC0A981E601FB0BDE8F08F18
:1057E0005846FDF7EFF832463B46FDF7BDFB002873
:1057F0007FF4DCAC0BF1FF3BD8E41C230B9A1A447A
:105800000B921E441C446AE7289A012A40F3A9819E
:10581000069A0F9B551EAB42C0F26B81002AA3EB88
:10582000050580F2DD820B9B069A9E1A03980121E2
:1058300011F0AEF907461AE7C3F1200306FA03F0A8
:1058400081E40125E4E43946002303980A2211F09B
:10585000FDF8189B002B074640F3EF820E95069348
:10586000002E00F33F81BBF1000F40F0DF81B8460E
:105870000A9E069C731E1C44049B0C9403F00103B7
:10588000039C0F934946504610F006FB3946834669
:10589000504611F033FB424649460546204611F07A
:1058A0004DFBC26801460BF13003002A3AD1089043
:1058B00050460B9311F022FB08990690204611F0F8
:1058C000BBF8069A0B9B002A5AD1289A1AB90F9A4C
:1058D000002A00F09A82002D45DB0C9AB346B242B2
:1058E0000BF8013B00F0B981514600230A22204603
:1058F00011F0ACF84745824639464FF000034FF0AF
:105900000A02204636D011F0A1F84146074600238E
:105910000A22204611F09AF85E468046B2E700BFA0
:10592000000024400398069311F086F8002D069B92
:1059300006DB049A289902F001020D432A432AD17A
:10594000514601220398049311F060FA49468246B9
:1059500011F0D4FA0028049B40F3E880392B00F0C2
:105960002F820BF131030E9D06F8013B3C460135B9
:10597000474612E711F06AF85E460746804681E71F
:10598000002DC0F27D8228990D430F990D4300F040
:105990007782002AA1DD392B00F012820133E2E781
:1059A000289B022B7FF7B4AE069B002B40F01D8195
:1059B00049460522039811F049F8014681465046B0
:1059C00011F09CFA002840F310810A9E0E9D3123AD
:1059D00006F8013B013503984946013511F02CF8D2
:1059E000002F7FF4E8AEEAE64946504611F086FA09
:1059F0000028BFF689AE5146002303980A2211F011
:105A000025F80E9B5D1E0C9B8246002B7FF41BAF7E
:105A1000189B002B40F3FF810E9D06937EE6014606
:105A20005A46039811F098F9289B012B81466CDDAA
:105A30004FF0000BD9F8103009EB8303186911F00F
:105A400055F8C0F1200039E6924B0A930333FFF773
:105A5000FABB049B002B7FF430AEDDE90412C2F3E5
:105A60001303002B7FF429AE8B4B134023B10B9B08
:105A700001330B9301340123BBF1000F40F0AE81E1
:105A80009B461AE63FF42BAEC0F13C03B6E6012379
:105A90000C93299B0E9A134418930133012B1E4635
:105AA0000693B8BF0126172E40F3D58101220423A7
:105AB0005B0003F11400B042114602F10102F7D974
:105AC000039B596411E401230C93299B002B33DDC4
:105AD000189306931E46E6E700230C93D9E70023AC
:105AE0000C93F2E739460398324611F08FF90746D6
:105AF000B9E60F9B069A0F95EB1A9B440B9B1E462B
:105B0000134414440B93002590E6049B002B8FD183
:105B1000DDE90401C1F313030A46002B88D1A3E792
:105B2000DDE908230227CDE912230BE47FF41BAF44
:105B3000DA077FF518AF11E7012329930693FFF7E2
:105B4000CFBB03D1049BDB073FF518AE5E461BF8C5
:105B5000013D302BFAD020E60A9A3123013513702B
:105B60001BE6119A002A00F0F98003F233430B9AE6
:105B70000F9D16461A441C440B9257E6C8F10103C8
:105B800004460B931090FFF79BBB00F0EB800E9B3D
:105B9000424D5E4206F00F0305EBC303D3E9002339
:105BA000DDE90801FCF778FF3511CDE9120100F0BD
:105BB0004D813B4E0023022780468946E80709D5E0
:105BC000D6E9002340464946FCF766FF0137804688
:105BD000894601236D1006F10806EFD1002B7FF4F2
:105BE000CAABDDE91289FFF7C6BB0A9ECAE4DDF83D
:105BF00018A00E9D02460B46FCF798FD02460B4688
:105C0000CDE906230135DDE90423A846FDF7D4F9E3
:105C100040B9DDE90423DDE90601FDF7A5F918B176
:105C2000F10701D50A9A4AE43E46C8E57968039827
:105C300010F0DCFE0546002800F026813B690233A7
:105C40009A0007F10C010C30FDF776FD0398294608
:105C5000012211F0DBF880460AE60E9D3C46013534
:105C600047467EE5DDF80C8039462A46404611F06D
:105C700073F8524601460746404610F0B7FF5146BA
:105C80008246404610F0D8FE0F9B5B1B0F933FF4FB
:105C900007ADFFE4C8BF01600000F07F88A4016089
:105CA00060A40160DDE91401FCF7F6FE0A9B1F7099
:105CB000129B012BCDE90C0100F0C680129F0A9BBC
:105CC000CDF844B01F447C4B002240464946FCF7C7
:105CD000E3FE89468046FDF779F98346FCF772FEBC
:105CE0000BF1300B02460B4640464946FCF71CFDC3
:105CF00006F801BBB74280468946E4D1DDF844B0DE
:105D00006E4B0022DDE90C01FCF710FD02460B464C
:105D100040464946FDF750F9002867D1DDE90C23DC
:105D200066490020FCF700FD02460B464046494606
:105D3000FDF724F948B91D9B002BFFF693AC0E9B91
:105D40000E2B3FF78FACFFF7FCBB3E46013F16F82A
:105D5000013C302BF9D0199D013530E51C9BC3F176
:105D6000360304E7DDE908890227FFF704BB069B39
:105D7000002B3FF4B8AB189B002B7FF7D9AB0E9AE2
:105D80001293013A4C4B1992404600224946FCF7C7
:105D900083FE80468946781CFCF714FE42464B463B
:105DA000FCF77AFE464B0022FCF7C0FC0646A1F148
:105DB0005077FFF701BB08F101083123FFF786BBDD
:105DC0000E9D0A9AB34639233C460BF8013B013538
:105DD0004746D8E44FF000094F46F6E59B4629E6D2
:105DE0000B9B1E46134414440B931FE5199B0A9A00
:105DF00003F10108FFF763BBDDF858A0ABE7DDE96D
:105E00001AB4DDF858A0FFF793BB392BD8D0002D7A
:105E10003FF7A7ADA7E5289B022B0ADC189B06934A
:105E200049460E9D10F038F80A9A00F130031370BD
:105E30008DE4189B06930E95B6E5289B022BF8DCA3
:105E4000189B0E9506930BE5374659E7DDE9128955
:105E50000227FFF790BA039B00215964FFF745BA68
:105E6000039B00255D642946184610F0BFFD0A908B
:105E7000A8B9144B144800224FF4D5710CF060FF00
:105E8000002A7FF770AD5BE50E4B0F482A4640F2C3
:105E9000EA210CF055FF0D4B0A93FFF730B9039B35
:105EA0000A9A1A644FF0FF330122299518930C9235
:105EB0000693FFF73DBB00BF000024400000E03F19
:105EC00000001C40CCBF0160E0BF0160BCBF0160AE
:105ED00070B504460E4683683921DB68984705464D
:105EE00020B10B480DF08AFA284670BD4FF0FF3202
:105EF0004FF0FF3307480AF0FBF8A36806F11002E1
:105F00001F2120461B69984702480AF0C1F9EBE7B8
:105F1000FEC00160B83420202DE9F04FA9B0022363
:105F2000384D8C22384F002105A8EB60AF600DF092
:105F300007FA49F64040002111F081FC334E30460B
:105F400013F097FC18B93168314811F02EFDB36891
:105F500030491B682D489847021E03DA00212E485D
:105F600011F023FD00244FF000084FF000094FF01E
:105F7000000B0A2200232948CDE900890CF09CFB84
:105F800002234FF0FF3226486B600C232B824FF028
:105F9000FF3311F04EFCB3681A495B681B48984701
:105FA000011E03DA1F4811F000FDE2E71C4811F062
:105FB00042FC28AB388803EB840A0134FDF734F93E
:105FC00023234AF88C0CDC464FF0000AB4FBF3F2B2
:105FD00003FB124405AA52F8041B0AF1010A6046A9
:105FE0000392FDF771F8BAF1230F8446039AF2D1B8
:105FF0000D49FDF725FA0D4B1860084811F01DFCFE
:10600000B7E700BFD4462020184E2020749C0160C2
:106010001DC1016066A5016041C1016000342020FE
:10602000E034202063C1016000000C42D0462020F3
:10603000F8B52D4B0022016945691C4601325868AC
:10604000182A43F8040BF9D1A6682166304627497F
:10605000FDF7E0FA10B1264B01221A70676821683B
:106060003846FDF7F5FA00283CD039463046FDF7B2
:10607000D1FA002836D01E4E3378002B32D01D4C7A
:1060800023687833AB422DDA0321174811F0DEFB89
:10609000194B1968FDF7DCFA20B34FF0FF324FF0CF
:1060A000FF33164811F0C5FB2068154F281AFDF77D
:1060B000BFF81449FDF7C4F9134B18604FF07E5038
:1060C0001968FDF7BDF938600C4811F0B4FB386869
:1060D000FCF78AFC02460B460C4811F066FC0023D4
:1060E00025603370F8BD00BF284720200000104114
:1060F0002C4E2020B44620207C302020CC34202080
:10610000E846202000801844EC46202080C1016031
:1061100000211E4810B5FDF70FFD1D4C002801465B
:10612000206002DA1B4811F040FC4FF42F7011F090
:1061300088FB00211548FDF7FFFC00280146206080
:1061400002DA144811F031FC322011F07AFB002100
:106150001148FDF7F1FC00280146206002DA0D48E5
:1061600011F023FC4FF42F7011F06BFB00210A4853
:10617000FDF7E2FC00280146206002DA054811F034
:1061800014FC322011F05DFB206810BD80A5016079
:10619000F44620208DC1016070A5016038B5264B02
:1061A0000021264C1B685A1C18D12548FDF7C4FC59
:1061B00000280146206002DA224811F0F6FB224D49
:1061C00022482968FDF7B8FC00280146206003DA60
:1061D0002A681F4811F0E9FB206838BD012B1B48D5
:1061E00014D1FDF7A9FC00280146206002DA194805
:1061F00011F0DBFB144D12482968FDF79DFC0028C7
:1062000001462060E8DA2A681348E3E7FDF794FCCA
:1062100000280146206002DA10480DF0EFF8002156
:106220000748FDF789FC002801462060D4DA0B48B6
:106230000DF0E4F8D0E700BF80302020F4462020A5
:1062400080A50160BDC10160F846202070A50160F5
:10625000EBC101601EC201604CC201607FC20160DF
:10626000F7B51E4C204613F004FB18B921681C48F2
:106270000DF0C4F8194813F0FCFA18B92168184851
:106280000DF0BCF800211748FDF756FC011E02DA9C
:1062900015480DF0B3F800211448FDF74DFC011E20
:1062A00002DA11480DF0AAF800260027104C114D13
:1062B00000230A222046CDE900670CF0FDF92B7877
:1062C0003BB9FFF725FF002806DB204611F0B5FAA1
:1062D000EEE7FFF763FFF6E703B0F0BDA49C0160B3
:1062E000A6C2016070A50160C9C2016080A50160FD
:1062F000903320202D4E202010B510490446FCF785
:1063000053F890B10E492046FCF74EF878B90D4C81
:106310000D4811F04AFB204613F0ABFA216840B15A
:106320000A4811F042FB204610BD094CF0E700245A
:10633000F1E708480DF062F8F5E700BFEEC2016032
:10634000F2C20160BC9C0160F6C2016013C301602F
:10635000D49C016028C3016038B5064C064D07483F
:10636000FFF7CAFF206029462068FFF7B1FD00282B
:10637000F9D038BD98472020A0472020F2C2016004
:1063800070B505460E4683683921DB689847044698
:106390004FF0FF324FF0FF33114809F0A9FE3CB136
:1063A0000F4809F075FF21460E4811F0FEFA15E07E
:1063B000AB683246032128461B69984704460028EB
:1063C000EED1AB6806F11802072128461B699847F1
:1063D0000446034809F05CFF002CE4D1204670BD60
:1063E000CC3420208CC301602DE9F04F91B00546DC
:1063F0000E46009302F00403DDF868900193C2F3A7
:10640000C203029201330493830740F0FE81041D0E
:1064100030B1072909D86FF01B0011B0BDE8F08F2B
:1064200001F00706341DC6F108064FF00008009B76
:106430004FF0040B4FF0FF32591E47464346DA46F1
:10644000CDF80C800DB1009820600498002800F36E
:10645000E1809C48DDF800C0844503D39A48844518
:10646000C0F0D880DDF808C0A4EB050E1CF0020FC8
:106470004FEA9E0000F0E9804FF0000CD3E07A284C
:1064800064D84B280FD8472860D829282FD825282A
:106490005BD05BD820287FD0A0F12309D9F100037D
:1064A00043EB090378E0A0F14C0EBEF12E0F4DD85E
:1064B000DFE80EF0724C4C4C4C4C4C4C4C4C4C4C61
:1064C0004E4C4C4C4C4C4C4C4C5C4C4E4E5C5C5CC6
:1064D000724E6F4C724C184E184C4C817E4E4C4C88
:1064E0004E4C7E00002000234FF0040B3CE0A0F156
:1064F0002A0E01205FFA8EFE00FA0EFE4FF6DA70C9
:106500001EEA000F48D11EF062502FD11EF0010389
:1065100042D0013CCBF1000E5C4404EA0E04002D95
:106520005ED0AAEB050EA6447645FFF474AF0028B2
:1065300068D1BAF1040F43D1E14659F8040B206049
:106540000434CC464FF0040A26E0013A002323E04D
:1065500011F8013C6C2B30D111F8023C00206C2B5F
:106560000346C1D14FF0080BDA46D2E70CF1070918
:10657000073429F0070C24F00704FCE802AB35B11E
:1065800005982044B0423FF646AFC4E900AB08345A
:1065900000234FF0080BDA4611F8010F002800F035
:1065A000BC80002B7FF46BAF2528F5D1013201238D
:1065B0004FF0040BEFE7184695E700200346A8E7E5
:1065C000BAF1080F40F09B800CF1070929F0070C85
:1065D000FCE8029AC4E9009A08344FF0080ADBE7A5
:1065E00080B9BAF1040F02D10CF10409A8E7BAF19D
:1065F000080F40F084800CF1070929F0070909F120
:10660000080CE9E70498E1460138049059F8040BB6
:10661000009017E70298800748D5A4EB050E4FF0CD
:10662000010C4FEA9E00BEF5007F1DD3274940F2C2
:106630007B23274A274811F064FC274811F061FCAE
:1066400040F27B21224811F055FC0F2F0ED8002D6F
:1066500046D007F1400CEC440CF8200C0CF8102C40
:1066600003980130039020E00F2F0CD917494FF405
:106670002073174A174811F044FC184811F041FCE8
:106680004FF42071DEE7BDB107F1400EC0B2EE4419
:106690000EF8200C0EF8102CBCF1000FE0D060F0CA
:1066A0007F0008F101080EF8200C0137C5F1080041
:1066B0000434CC4605906FE7BCF1000F10D00136D2
:1066C000F3E700BF749A01609CEE01604EC6016062
:1066D000A9C30160D7C30160F4C3016015C40160A0
:1066E000019802360028E0D100980592CDE90631E4
:1066F000FBF7E6FD059A0644DDE90631D5E740F2F1
:10670000C523434A4349444811F0FBFB51464348E3
:1067100011F0F7FB40F2C52194E7631BB3F5806FDE
:106720000CD33C4940F2D123394A3B4811F0E9FBF4
:106730003B4811F0E6FB40F2D12183E71DB9A6F1F9
:106740000804E01869E69B08019A28602B709DF800
:106750000C30C2B1EB7085F80280B8F1000F05D0A3
:1067600008A80022C5F1010C97420ED1C5F1010322
:106770000DF120094FF0000A0DF1300B029357453F
:1067800012D1601B49E66B70E5E710F8013B190672
:1067900008D504EB0C0E03F07F037645FFF43BAE07
:1067A00004F8013B0132DFE7B8F1000F03D099F99B
:1067B0000020002A17DB019BD3B11AF80B2004F844
:1067C000012B0022029B981820448642FFF423AE3E
:1067D00099F80000009904F8010B20460392FCF799
:1067E000ABFF039A14440AF1010A09F10109C6E753
:1067F00099F8002055F822300093019B009845F845
:106800002230FBF75DFD421CDCE76FF00D0004E673
:10681000A9C301604EC60160D7C301602FC40160E7
:1068200044C401602DE9F04F97B0044600AFD7F89B
:1068300080A0FB61C7E90A1258B9AB494FF46573F0
:10684000AA4AAB4811F05DFB4FF46571A74811F0FF
:1068500051FBCAF3C0037B61BB6A53B90378467826
:106860008078BD6A00EB83002044B54219D3031B36
:10687000BB62E37894F802B0BB61BBF1000F02D0B9
:106880001AF0010F16D1BB6953BBFB6A1BB1FA6941
:106890002046B96A9847BD6A28465C37BD46BDE8C0
:1068A000F08F00F1010801354046FBF709FD01308A
:1068B0004044DAE7237862687B629B003A623B617E
:1068C0007B6A04EB8309FB6A002B40F00181BD6AFF
:1068D000C84609EB0B03002643454ED1D94413E0CB
:1068E0001AF0020FD1D0237899467B629B0004EB0B
:1068F00089093B6163683B62FB6A002B7CD1BD6AFE
:10690000BBF1000F50D15E461AF0050F0CBF0223F9
:106910000123FB62BB6909EB430B0AF00203BB6274
:10692000D945B9D019F8021B19F8013C54F8238055
:10693000704B984502D3704B98453BD37B69002B35
:1069400045D0386A10F0F6FF002840D0E8468AB0FB
:106950006A466A4B53613B6AC2E906314FF40073E1
:106960001384674B42F8103F00234FF412516548DF
:10697000023D02F0A7F8C546D2E718F8012BFB62EA
:1069800054F82200FBF79CFCD7F884200130FB6A06
:1069900042B1D7F8882096423EBFD7F8842022F82B
:1069A00016000136054497E71AF004061CBFD944C7
:1069B000FE6AA9E77B6923B1386A10F0BBFF0028A3
:1069C000C4D11AF0010F05D1FB6AED1AA8E7BB6A22
:1069D000002BA5D04046FBF773FCD7F884304BB1B1
:1069E000D7F888309E423FBF431CD7F8842022F856
:1069F00016300136054493E7BBF1000F6ED01AF054
:106A000004066ED0D846002607F148005A4649468B
:106A1000FCF792FEBB69D9445B00FB60BB6909EBE4
:106A20004303BB600AF002037B60BB684B456BD13C
:106A30001AF0020F637808BF4FEA580106EB030211
:106A400018BF00211AF0010FD2B240F0E1801AF015
:106A5000040F14BF404600203B626270A0702046C5
:106A6000E170FA693969FB6A9847051EFFF614AFB1
:106A70007B6A4146FA6907F1480023703B6A84F853
:106A800002B06370BB69E370FB6A9847B0F100081D
:106A9000C0F2EC80BB6A4846FA69A3EB0B013B6984
:106AA000C91AFB68C91AFB6A98470028C0F2E0803F
:106AB000A8444FF0000B07F1380A08EB0005B34576
:106AC000C0F2A8800021FA69FB6A08469847E3E60D
:106AD0005E464FF0000807F1380097E75E46D8465B
:106AE00098E7B04696E700BF5BC40160A9C30160A8
:106AF000D7C30160749A01609CEE016076C40160A6
:106B000004000001A4A3016019F8021B594B19F8F5
:106B1000015C54F82500984202D3574B984216D393
:106B20007B692BB1386A10F005FF00287FF47DAF38
:106B30007B68002B4AD00F2E3ED950494FF4896311
:106B40004F4A504811F0DDF94FF489617EE67B69C8
:106B50002BB1386A10F0EEFE00287FF466AF1AF011
:106B6000010F0BD00F2E27D9444940F23E43444A2F
:106B7000444811F0C6F940F23E4167E61AF0040FAE
:106B80003FF453AFB8F10F0F09D93F4940F24143E9
:106B90003B4A3C4811F0B5F940F2414156E608F154
:106BA000280307F1300208F1010103EB020808F89D
:106BB000105C5FFA81F838E706F1280307F130022C
:106BC000711C9E1806F8205CCEB22EE7B8F10F0FAC
:106BD00009D92D4940F24B43294A2A4811F091F92D
:106BE00040F24B4132E608F1280307F1300208F188
:106BF000010008F1020803EB020C07F158035FFAE9
:106C000088F853FA80F00CF8101C00F8105C0CE7C0
:106C1000002021E71BF80A3054F8239087F837301A
:106C2000D7F88430FBB133F81B80FA69012107F1F2
:106C30003700FB6A984700281ADB0544B8F1000FBB
:106C400006D14846FBF73CFB00F101081FFA88F823
:106C5000FA6941464846FB6A9847002808DB054424
:106C60000BF1010B2BE7D7F88480DEE7454613E6EE
:106C7000054611E6749A01609CEE016019C5016039
:106C8000A9C30160D7C3016038C50160014B18601A
:106C9000704700BFD030202030B5002587B00446B3
:106CA00000950595CDE9030103A9054800F0DCF93D
:106CB000DDE904309842B8BF255407B030BD00BFAD
:106CC00083790160F8B50F4600293BD006680122A0
:106CD000304610F0C6FE01460446304610F089FEEC
:106CE000C3070DD4AF23184A1849194811F009F900
:106CF0003946184811F005F9AF21134811F0FAF898
:106D00002146304610F08BFE2518002230462946D9
:106D100010F06FFE2D1AAC420BD0B7230A4A0E4971
:106D20000B4811F0EEF839460C4811F0EAF8B7219B
:106D3000E3E72146304610F078FE2146BDE8F840F2
:106D400010F0B5BFF8BD00BF69C501608AC501601C
:106D5000D7C301609BC50160D3C50160F9C501605F
:106D60002DE9F843066814460F464B1EB268B2F58B
:106D7000004F34BF042108213B400FD0C7F1000968
:106D8000581E09EA0709494528BF494618420CD14F
:106D90001F46DCB900252846BDE8F8838F4213D88A
:106DA0002146BDE8F84310F0C4BF2F494FF4A27349
:106DB0002E4A2F4811F0A5F82E4811F0A2F84FF4F2
:106DC000A2712A4811F096F89946E2E7B2EBD40F87
:106DD000E0D9E3191046591A10F04DFE014630462D
:106DE00010F0A4FE80460028D4D0B36809EBC0059B
:106DF0003046B3F5004F34BF042308231D447B1EE7
:106E00007F4235441D443D40A5EB09052C442946ED
:106E100010F027FE804504F10704074624F007041C
:106E2000A4EB06044FEAE40408D202464146304689
:106E300010F0B6FE4146304610F0F7FE39463046B7
:106E400010F0EDFD3844844208D2394630462246DF
:106E500010F0A6FE2146304610F0E7FE012239462A
:106E6000304610F0E2FD96E735C6016069C5016065
:106E7000D7C3016050C60160B2F5802FF8B510D2BB
:106E8000042A28D841494FF4F973414A414811F086
:106E900038F8414811F035F84FF4F9713C4811F0D9
:106EA00029F80823D21ACC1D114424F0070421F03C
:106EB0000701091B17294FEAD1060ED8374940F2BE
:106EC000FB13334A334811F01CF8334811F019F81A
:106ED00040F2FB11E2E70423E4E7002704603146B7
:106EE0003046A660E76010F0D0FD01218500024623
:106EF00030461B3510F0BFFDED082844B04234D8B1
:106F000004F10C013B4638469A423BDA2A462046B9
:106F10000021771B10F0A1FD002320461A461946D8
:106F200010F072FD19462046012210F07EFD3A460F
:106F3000294610F092FD2B4600222946204610F0EB
:106F400063FD3146204610F088FD3B463146204621
:106F5000002210F059FD31462046012210F065FD57
:106F60002946BDE8F84010F060BE0D494FF40373A8
:106F7000074A084810F0C5FF074810F0C2FF4FF459
:106F800003718BE7013341F8040FBDE76DC6016063
:106F900069C50160D7C301608EC60160A7C60160E4
:106FA000D0C60160F0B502460168084E00200A27ED
:106FB0000B4601311C78355D6D0701D41360F0BDBF
:106FC00007FB0043A3F13000F2E700BF35BE0160CC
:106FD0002DE9F84F15469A46D3788046214A0F4648
:106FE0006F2B12F803B00BF0030B29D024D8582BC9
:106FF0000CBF10260A26DDF82890324600234046B2
:107000003946FCF77FFB092AD4B21ED83034B0458C
:10701000E4B277F1000709F8014D01D3D14511D849
:107020002B789B0605D5082E15D1AB7843F00803C5
:10703000AB704846BDE8F88F03F0F703702BD7E735
:107040000826D8E780460F46D7E7BBF1010F0CBFF3
:1070500037345734DBE7102EEBD1AB7843F0100315
:10706000E6E700BF35BE01602DE9F04F82469FB0D4
:1070700016461C4600250391307810B9284600F0CA
:1070800085BD731C2528069306D00399D047002898
:10709000C0F27C8501351FE21822002110A80CF0F7
:1070A0004FF97378252B00F0BC800023711C9846A3
:1070B0009E469C4618460F4611F8012B2B2A00F0DD
:1070C000DF8000F2D680202A00F0DD80232A00F045
:1070D000DD802BB19DF8483043F040038DF84830F7
:1070E000B8F1000F05D09DF8483043F020038DF82B
:1070F0004830BEF1000F05D09DF8483043F0100332
:107100008DF84830BCF1000F05D09DF8483043F0B1
:1071100008038DF8483028B19DF8483043F0040347
:107120008DF848309DF8483003F04401442903D1DC
:107130006FF386138DF848309DF848302A2A0E9751
:1071400043F080038DF8483040F0A5809DF8493029
:1071500043F001038DF849307B1C1A782E2A9DF8E4
:1071600049200CBF0121002161F341028DF8492023
:107170000CD15A1C0E925A782A2A40F09C809DF815
:107180004920023342F004028DF849201A786C2A13
:1071900000F0BD8000F29F80682A00F0A5806A2A76
:1071A00000F0BE804C2A00F0C38013F8012B782A2F
:1071B00006938DF84B2000F205816D2A00F2C58000
:1071C000692A00F2FF80572A00F2DE80412A04D0AB
:1071D000A2F14503022B00F2F58002F0DF029DF8D8
:1071E0004A300421A2F1410861F302039DF84910DD
:1071F000D8F100028DF84A3042EB080262F3C71161
:107200000A06CBB28DF8491000F11B8103F0780219
:10721000182A40F005816FF3C6038DF8493000232A
:10722000F4E0B21C8DF84B3006929DF84930DF0730
:1072300040F1098154F8042B002A049208DA9DF8E1
:10724000482042F004028DF84820049A52420492E9
:10725000580740F1008154F8047B002F80F2FF8032
:107260009DF849306FF341038DF849304FF0FF37F7
:10727000F5E02D2A0DD0302A7FF42BAF01231AE739
:107280004FF0010C17E74FF0010E14E74FF0010823
:1072900011E701200FE70EA8FFF784FE0E9BBB420B
:1072A0003FF45BAF9DF848201390C00F60F341029C
:1072B0008DF8482051E70EA8FFF774FE9DF848307E
:1072C0001490C3F3400242EAD07262F341038DF896
:1072D00048300E9B5AE7742A26D07A2A7FF465AF8D
:1072E0009DF8492006210CE05A78682A9DF849202B
:1072F00006D1012161F3C60202338DF8492054E71B
:10730000022161F3C6028DF8492001334DE75A7816
:107310006C2A9DF8492001D10421EBE70321F0E715
:107320009DF849200521ECE79DF849200721E8E771
:10733000BDF8482022F4F04222F0020242F48042DA
:1073400042F00202ADF84820DFE76E3AD3B20122E4
:107350009A4040F282431A429DF8493039D112F0E6
:10736000240F61D1D1072DD503F078039DF84A2071
:107370000321A3F1400C61F30202DCF100038DF85C
:107380004A2043EB0C0341E0A2F158010120C9B2AD
:1073900000FA01F111F4624F7FF41FAF40F60103D0
:1073A00019429DF849301AD111F4043F0AD09DF8D2
:1073B0004A2060F3020203F078038DF84A20402B44
:1073C0007FF42DAF9DF8483043F001038DF848302D
:1073D00025E79DF84A20022161F30202EBE79DF8C0
:1073E0004A10022003F0780360F30201402B8DF86D
:1073F0004A1002BF9DF8481041F001018DF8481075
:10740000632A7FF40CAF003B18BF01239DF848208E
:10741000C2F340010B4363F341028DF8482004E7B7
:1074200013F0380FCED1FAE69DF84A20032113F06D
:10743000780F61F3020214BF012300238DF84A2064
:10744000E4E70123E2E79DF94820002AB4BF139A3C
:107450004FF0FF32FBE699077FF508AF149F00233A
:107460009DF84910CDE913339DF84A3003F0070227
:10747000042A07D18A0705D49DF94920002AACBF08
:1074800006270D2703F00703C1F3C301012B33D1F6
:10749000CB1E042B04D8DFE803F02146462121004F
:1074A000236801294FEAE372CDE910321CD19DF91E
:1074B0004030DA17CDE9103204349DF84830079394
:1074C0009B0750D0069B32460399504610F092FC21
:1074D0000028C0F25B830544069ECDE554F8043BCA
:1074E000DA17CDE91032E8E70229E5D11AB243F301
:1074F000C033CDE91023DFE7022B24D1CB1E042BB0
:1075000004D8DFE803F0181010181800012954F807
:10751000043B4FF0000214D00229CDE91032CCD147
:107520009BB21093C9E7073424F00704F4E8022360
:10753000CDE91023C1E754F8043B109300231193C5
:10754000BBE7DBB2CDE7042B08D1073424F00704F6
:10755000D4E900230834CDE91023AEE7032BACD1E6
:1075600054F8043BDDE79DF84BB0BBF1780FB3D87E
:10757000BBF1570F49D8BBF1250F00F09180BBF14B
:10758000240FA9D9BBF1410F03D0ABF14502022A68
:10759000A2D8DDE91012002AC0F23681079B180735
:1075A00000F13581C3F300194FEA4919C2F30A50BB
:1075B000C2F31302002840F02D8151EA020614BFE5
:1075C00001260026D202BBF1460F42EA515208BF03
:1075D0004FF0660BC90242EAE07C40EA010E5EEA27
:1075E0000C0CCDE90C1200F09D81002E40F0498179
:1075F0000D9AA0F2FE3842F000420D9200204FF0AA
:10760000050CDDE90C12064655E1ABF15802202AC3
:107610003FF662AF01A050F822F000BFA7770060EC
:10762000D9740060D9740060D9740060D9740060A6
:10763000D9740060D9740060D9740060D974006096
:1076400093750060D97400602B7700603F7700600D
:10765000937500609375006093750060D974006045
:107660003F770060D9740060D9740060D9740060FD
:10767000D9740060E1770060A7770060AD770060A3
:10768000D9740060D9740060A7760060D974006076
:10769000A7770060D9740060D9740060A777006094
:1076A00003995846F2E4002F109E3ADB39463046E3
:1076B0000BF0CAFE3718002E3FF40EAF4FF0000952
:1076C0009DF84A3013F01002059200F05482023007
:1076D00013F04003DDF84C800893404418BF149B1E
:1076E000CDF81C8018BFC018049B002B40F35E82AD
:1076F0009DF848201B1A5007C2F3800B049300F139
:107700005582510640F14582B9F1000F07D0039927
:107710004846D0470028C0F239820135D946302288
:1077200038E23046FAF7CCFDC4E7109B4FF0000971
:107730000DF15D0717AE01208DF85C30C0E7079BA7
:107740001E0754BFC3F300194FF02B09DDE91023C6
:1077500058BF4FEA4919002B06DA52424FF02D0963
:1077600063EB4303CDE910230DF1750312AA0093D7
:1077700017ABDDE91001FFF72BFC0646002F0CDBF1
:107780000DF175039DF848209B1B6FF386129F42F5
:107790008DF8482001D9FB1A1393002E3FF49CAEBC
:1077A0000DF175075BE04FF00009DDE71098002848
:1077B00000F0DC810DF1750312AA00214FF00009E1
:1077C000009317ABFFF704FCBDF84A30064603F000
:1077D000EF0343F4F04343F01003ADF84A30CDE734
:1077E000109B07293FF678AEDFE801F00C04060C89
:1077F00008080C0C1D706FE61D806DE6EA17C3E9E2
:10780000005269E61D6067E64FF02D09CEE64FF0A5
:107810002B09CBE640F2FF76B0422FD10BF10103EA
:107820009D480A43DBB2C35C03F003031ED1012B66
:107830000BBF492369234E216E210CBF46226622CD
:107840008DF85C300DF15F079DF848308DF85D10C4
:107850006FF386138DF85E208DF8483017AEB81B95
:10786000B9F1000F3FF42CAF013029E7012B15BF10
:107870006E234E23612141211A46E1E70026A1E64D
:10788000013849185241002AFADACDE90C12AFE664
:107890004908404608F1010841EAC2715208B2F1B4
:1078A000333FF5D20CFB02FE00F10208A1FB0C12E3
:1078B000013E0120724418F1020FE9DB08B1CDE965
:1078C0000C12B8F1000FDDE90C212EDCC8F1040028
:1078D00008F11C08A0F1200CC24021FA00F301FAC3
:1078E00008F80BF0DF0021FA0CFC42EA08020893CA
:1078F000472842EA0C0239D1F31C01DBB7422BDAEC
:10790000ABF10203002F5FFA83FB7EDD9DF8480098
:10791000013F800679D43B1E18BF0123059307F170
:1079200001082DE04FF0000868E602320CA808F1CB
:10793000FF3806F1010641F10001CDE90C2110F0FC
:107940002AFADDE90C21921808F1FF384941002993
:10795000F9DACDE90C21B4E79DF84830BF1B990650
:1079600051D43B1E18BF0123059304E00023BBF153
:10797000660F0593D3D117EB06084FF0660B46D47C
:10798000B8F1100FA8BF4FF0100810204FF00061A1
:107990000B900020CDE90E01DDE90E03B8F1000FD8
:1079A00038D11218089941EB0301B1F1805F3FD241
:1079B000CDE90C21079BBBF1660F03F0200240F0DC
:1079C000B480002E3FDC30218DF85C10002A65D198
:1079D000002F40F3AC812E228DF85D2086B17242DB
:1079E0009DF84A10BA42A8BF3A46002AA7EB020700
:1079F0001392D4BF0022012262F345118DF84A1080
:107A00000DF15E0837E00023AEE7002386E74FF074
:107A10000008BAE74008099208F1FF3840EAC3704D
:107A20005B08CDE90E030EA810F0B5F9099AB3E78B
:107A300052080CA8013642EAC1724908CDE90C216E
:107A400010F0A9F9B6E70DF15C080B99002909DDE2
:107A50000BA90CA8079210F0B6F9013E079A08F896
:107A6000010BF2D113969AB9002F40F35E812E21BB
:107A700008F8011B0026002F19DD0B9A002A16DDDD
:107A80000BA90CA810F09FF9013F08F8010BF2E7D1
